:040000000DEF00F010
:04000800E1EF0AF02A
:06001800FF0058EF0CF0A0
:0715000000024000000000A2
:10150800010E2424D96EDA6A050EDA22000EDF6E87
:101518000201B2A792EF0AF094EF0AF0A7EF0AF0DF
:10152800010E2424D96EDA6A050EDA22DF8202D887
:10153800A7EF0AF00500FA6E3550FD6E3650FE6EC4
:10154800FF6AFA5012000201B2A3ADEF0AF0AFEF42
:101558000AF0C2EF0AF0010E2424D96EDA6A050EE9
:10156800DA22DF8402D8C2EF0AF00500FA6E33509F
:10157800FD6E3450FE6EFF6AFA501200010E2424EC
:10158800D96EDA6A050EDA22DF50D8B4CEEF0AF047
:10159800D0EF0AF0DEEF0AF002D8DCEF0AF005001F
:1015A800FA6E3150FD6E3250FE6EFF6AFA5012002C
:1015B800E0EF0AF06EEC0CF012006100E8F33CF585
:1015C8006100ECF33DF5ACA2ECEF0AF0EEEF0AF0A7
:1015D80003EF0BF0B7A2F3EF0AF0F5EF0AF003EF11
:1015E8000BF002D801EF0BF00500FA6E3750FD6ED4
:1015F8003850FE6EFF6AFA50120031EF0BF0ACA0C3
:1016080008EF0BF00AEF0BF01FEF0BF0B7A00FEF8E
:101618000BF011EF0BF01FEF0BF002D81DEF0BF0E2
:101628000500FA6E3950FD6E3A50FE6EFF6AFA50A8
:10163800120031EF0BF0ABAE24EF0BF026EF0BF0FE
:1016480031EF0BF0B6AE2BEF0BF02DEF0BF031EFC7
:101658000BF03BEC0CF031EF0BF06100F4F4FBF411
:101668006100F0F4FAF41100AC90080E3E6E150E0D
:101678003F6ED0EC0CF0AC92F60E3E6E170E3F6E3D
:10168800CBEC0CF0000E0201A56F000EA66F000E49
:10169800A76F000EA86F000EA96F000EAA6FB00EFC
:1016A800AB6F800EAC6F000EAD6F220EAE6F000EEA
:1016B800AF6F000EB06F000EB16F000EB26F000E6C
:1016C800B36FFC0E3E6E190E3F6EDAEC0CF0FA0E9C
:1016D8003E6E190E3F6ED5EC0CF0F00E3E6E190EF4
:1016E8003F6EDFEC0CF0000E216E000E266E000E31
:1016F800256E200E3B6E000E246E000E236E000E2B
:10170800226EAC801200000EBE6E000EBF6E000E80
:10171800C06E2F0EC66E200EC76EF90EC86E020E72
:101728000401106F800E086F270E006F200E096FDE
:10173800000E016F780E116F000E026F000E0A6F17
:10174800000E126F370E036FF00E0B6F13693F0E0A
:10175800046FF00E0C6F1469130E0201586F120E0D
:101768006A6F150E576F0A0E056F100E106F1C0E5C
:10177800126F1B0E136F170E726F100E6B6F120025
:10178800000E606E020E616E000E626E2C0E636EAD
:10179800000E646E000E656E000E666E000E676EBB
:1017A800000E686E000E6A6E020E6B6E000E6C6E96
:1017B800160E6D6E000E6E6EB79CB79E67906792A0
:1017C800AC9EAC9C000E3E6E000E3F6EEEEC0CF034
:1017D800000E3E6E000E3F6EE9EC0CF0000E3E6E01
:1017E800000E3F6EF3EC0CF0800E696E1200200EB6
:1017F8003B6001EF0CF003EF0CF01AEF0CF0800ED9
:101808002524D96EDA6A050EDA22DF500201A36FA9
:10181800252A1F0E256413EF0CF015EF0CF017EFB7
:101828000CF0000E256E3B2A1BEF0CF0AC92120058
:10183800630E03011B6FB10E196FE00E186F18517C
:10184800600064FC40F5416A40C541F5406A4010BB
:10185800296E41502A6EB69EAB8EFE0E3E6E190E54
:101868003F6EE4EC0CF0900E03011A6F1200B69E66
:101878002A500301196F6100A4F418F327502810A7
:10188800D8B449EF0CF04BEF0CF057EF0CF002D83E
:1018980057EF0CF00500FA6E2750FD6E2850FE6ECB
:1018A800FF6AFA501200120001EE60F1400EEE6A73
:1018B800E806FDE101EE01F1260EEE6AE806FDE11B
:1018C8000401080E5D6F000E5E6F000E5F6F000171
:1018D800BFEF0CF0600E2424D96EDA6A050EDA2206
:1018E800A1C2DFF4242A1F0E24647DEF0CF07FEFE1
:1018F8000CF081EF0CF0000E246E222A1200FBEC93
:101908000CF096EC0CF087EC0BF0A4EC0CF0C5ECAA
:101918000CF01CEC0CF038EC0BF0B2EC0CF0C4EC56
:101928000BF01200000E0001636F000E646F000ED2
:10193800656F000E666F000E676F000E686F12000D
:10194800600E0001AD6F000EAF6F000EB36F050E95
:10195800B16F000EB06F000EAC6F1200020E0001E6
:10196800846F400E856F000E866F000E8C6F000E20
:10197800896FC894120083EC0CF0C1EF0CF00DEFE6
:1019880000F0A00E00017F6F7F0E7D6F12003EC534
:1019980037F53FC538F512003EC539F53FC53AF56C
:1019A80012003EC533F53FC534F512003EC535F586
:1019B8003FC536F512003EC531F53FC532F5120078
:1019C8003EC527F53FC528F512003EC52DF53FC594
:1019D8002EF512003EC52FF53FC530F512003EC565
:1019E8002BF53FC52CF512006EEC0CF01200D69AC0
:0819F80012001200120012009F
:020000040020DA
:10000000FF0FFF0FFF0FFF0FFF0FFF0FFF0FFF0F80
:10001000FF0FFF0FFF0FFF0FFF0FFF0FFF0FFF0F70
:10002000FF0FFF0FFF0FFF0FFF0FFF0FFF0FFF0F60
:10003000FF0FFF0FFF0FFF0FFF0FFF0FFF0FFF0F50
:020000040030CA
:0A000000ECFFF7FF9FFFFFFFFFFF7B
:00000001FF
